:100000000C94DF000C9407010C9407010C94070179
:100010000C9407010C9407010C9407010C94070140
:100020000C9407010C9407010C9407010C94070130
:100030000C9407010C9407010C9407010C94070120
:100040000C94AB040C9407010C94D8030C94B203E9
:100050000C9407010C9407010C9407010C94070100
:100060000C9407010C94070100407A10F35A00A089
:10007000724E18090010A5D4E80000E87648170071
:1000800000E40B54020000CA9A3B000000E1F505B1
:10009000000080969800000040420F000000A086FB
:1000A00001000000102700000000E803000000002D
:1000B0006400000000000A000000000001000000D1
:1000C00000002C76D888DC674F0823DFC1DFAE59EB
:1000D000E1B1B796E5E3E453C63AE651997696E87E
:1000E000E6C28426EB898C9B62ED407C6FFCEFBC02
:1000F0009C9F40F2BAA56FA5F490055A2AF75C932D
:100100006B6CF9676DC11BFCE0E40D47FEF520E662
:10011000B500D0ED902E0300943577050080841E45
:10012000080000204E0A000000C80C333333330FA0
:10013000986E12831141EF8D2114893BE65516CF3D
:10014000FEE6DB18D1844B381BF77C1D901DA4BB49
:10015000E424203284725E228100C9F124ECA1E5FE
:100160003D2700000000240027002A0000000000B6
:10017000250028002B000000000023002600290095
:10018000040404040404040402020202020203033D
:100190000303030301020408102040800102040845
:1001A00010200102040810200000000800020100D5
:1001B000000304070000000000000000470B1124AA
:1001C0001FBECFEFD8E0DEBFCDBF28E0A8E0B5E08E
:1001D00001C01D92A43DB207E1F715E0A0E0B1E037
:1001E000E6E5F0E202C005900D92A830B107D9F71C
:1001F00010E0CFEDD0E004C02197FE010E941E1058
:10020000CE3DD107C9F70E94E8070C9429100C9441
:100210000000FC01918D828D981761F0828DDF01C5
:10022000A80FB11D5D968C91928D9F5F9F73928FE9
:1002300090E008958FEF9FEF0895FC01918D828DDE
:10024000981731F0828DE80FF11D858D90E00895AB
:100250008FEF9FEF0895FC01918D228D892F90E003
:10026000805C9F4F821B91098F739927089589E1C4
:1002700095E00E942B0121E0892B09F420E0822FD8
:100280000895FC01848DDF01A80FB11DA35ABF4F53
:100290002C91848D90E001968F739927848FA68985
:1002A000B7892C93A089B1898C9180648C93938DAC
:1002B000848D981306C00288F389E02D80818F7D9C
:1002C00080830895EF92FF920F931F93CF93DF9354
:1002D000EC0181E0888F9B8D8C8D981305C0E88997
:1002E000F989808185FD24C0F62E0B8D10E00F5F0B
:1002F0001F4F0F731127E02E8C8DE8120CC00FB624
:1003000007FCFACFE889F989808185FFF5CFCE0116
:100310000E944101F1CF8B8DFE01E80FF11DE35AE0
:10032000FF4FF0820B8FEA89FB898081806207C0D2
:10033000EE89FF896083E889F98980818064808300
:1003400081E090E0DF91CF911F910F91FF90EF90AE
:100350000895CF93DF93EC01888D8823C9F0EA8953
:10036000FB89808185FD05C0A889B9898C9186FDAE
:100370000FC00FB607FCF5CF808185FFF2CFA889AB
:10038000B9898C9185FFEDCFCE010E944101E7CF65
:10039000DF91CF91089580E090E0892B29F00E94B1
:1003A000370181110C9400000895833081F028F406
:1003B000813099F08230A1F008958730A9F088301B
:1003C000B9F08430D1F4809180008F7D03C080919A
:1003D00080008F7780938000089584B58F7702C066
:1003E00084B58F7D84BD08958091B0008F7703C060
:1003F0008091B0008F7D8093B00008950F931F937C
:10040000CF93DF938C01EB016BE173E089E195E021
:100410000E94E607F8016081718189E195E00E9400
:10042000D207F801D383C28362E373E089E195E0E8
:100430000E94E6076881798189E195E00E94D207F0
:100440002C813D81C90101969D838C832D5F3F4F97
:10045000220F331FFE01E20FF31F1183008368E4B4
:1004600073E089E195E0DF91CF911F910F910C949A
:10047000E60763E673E089E195E00E94D2070E94F7
:100480001D0760E070E082E190E00E9410078BE7BA
:1004900093E00E94E00662E070E088E190E00E9454
:1004A000100783E893E00E94E00664E070E088E0D3
:1004B00090E00E94100789E893E00E94E0060E9405
:1004C00022050E9497068823D1F364E973E089E14D
:1004D00095E00C94D2070F931F93CF93DF938C0179
:1004E000C0E0D0E0BE0180E090E00E94100787E30A
:1004F00094E00E94E0062196C630D10599F7F801F4
:100500006081718180E090E00E9410078AE993E0A9
:10051000DF91CF911F910F910C94E006EF92FF9223
:100520000F931F93CF93DF93EC010E941D078A81E5
:100530009B8160E070E0892B79F488E090E00E9474
:100540001007888199810E94E0067E0186E0E80E0E
:10055000F11C00E010E007C088E090E00E94100766
:100560008CE993E0F0CF8C819D810817190780F406
:100570000F5F1F4FB80188E090E00E941007D7017D
:10058000ED91FD917D01808191810E94E006EBCF8C
:10059000CE014096DF91CF911F910F91FF90EF9088
:1005A0000C946B028F929F92AF92BF92CF92DF9288
:1005B000FF920F931F93CF93DF9364EA73E089E177
:1005C00095E00E94D207C2E3D0E088E1C82E81E026
:1005D000D82E0E9422050E946607882371F0BE0172
:1005E00080E090E00E94BE0E2DEC3CEC4CEC5DE314
:1005F0000E946E0F0E94DB0FEB010E9457078823B9
:1006000071F0BE0180E090E00E94BE0E2DEC3CEC4B
:100610004CEC5DE30E946F0F0E94DB0FEB010E9428
:100620009706882309F46FC00E941D0760E070E000
:1006300089E190E00E94100789EB93E00E94E006B8
:1006400061E070E08FE090E00E9410078EEB93E095
:100650000E94E00662E070E085E090E00E941007F2
:1006600080911206909113060E94E0060E942205D6
:1006700064E070E08AE090E00E94100787EC93E06D
:100680000E94E00664E070E08CE390E00E941007B6
:100690008BEC93E00E94E0060E9466078823A1F09D
:1006A00064E070E084E390E00E94100787E394E048
:1006B0000E94E00664E070E082E090E00E94100793
:1006C0008AE993E00E94E0060E9457078823A1F080
:1006D00064E070E082E090E00E94100787E394E01D
:1006E0000E94E00664E070E084E390E00E9410075E
:1006F0008AE993E00E94E0060E949706882309F4A5
:10070000B5CFF12C02C0FF24F394BE0180E090E04D
:100710000E94BE0E4B015C010EE111E022E045E0BB
:100720000E94380CD0921306C092120622E045E0D7
:10073000C501B4010E94380CD0921306C092120673
:100740008EE496E00E948E02F11043CFDF91CF91AC
:100750001F910F91FF90DF90CF90BF90AF909F902F
:100760008F9008951F920F920FB60F9211242F931E
:100770003F934F935F936F937F938F939F93AF9329
:10078000BF93EF93FF9389E195E00E944101FF91B0
:10079000EF91BF91AF919F918F917F916F915F91F9
:1007A0004F913F912F910F900FBE0F901F90189572
:1007B0001F920F920FB60F9211242F938F939F9336
:1007C000EF93FF93E0912905F0912A058081E09154
:1007D0002F05F091300582FD12C090818091320585
:1007E0008F5F8F7320913305821751F0E0913205AE
:1007F000F0E0E75EFA4F958F8093320501C080816B
:10080000FF91EF919F918F912F910F900FBE0F90BD
:100810001F901895CF93DF93282F30E0F901E8550A
:10082000FE4F8491F901EC56FE4FD491F901E05846
:10083000FE4FC491CC2391F081110E94D501EC2F81
:10084000F0E0EE0FFF1FEA58FE4FA591B491EC9136
:10085000ED2381E090E021F480E002C080E090E0B0
:10086000DF91CF9108951F93CF93DF93282F30E02E
:10087000F901E855FE4F8491F901EC56FE4FD491F1
:10088000F901E058FE4FC491CC23C9F0162F811115
:100890000E94D501EC2FF0E0EE0FFF1FE459FE4F50
:1008A000A591B4918FB7F894111105C09C91ED2FCB
:1008B000E095E92302C0EC91ED2BEC938FBFDF9123
:1008C000CF911F910895CF93DF9390E0FC01EC56F8
:1008D000FE4F2491FC01E058FE4F8491882361F182
:1008E00090E0880F991FFC01EE59FE4FC591D491FD
:1008F000FC01E459FE4FA591B491611109C09FB765
:10090000F8948881209582238883EC912E230BC054
:10091000623061F49FB7F8943881822F80958323E9
:100920008883EC912E2B2C939FBF06C08FB7F89431
:10093000E8812E2B28838FBFDF91CF9108952FB7A9
:10094000F89460910D0570910E0580910F059091BE
:1009500010052FBF08951F920F920FB60F9211240A
:100960002F933F938F939F93AF93BF9380910D05E8
:1009700090910E05A0910F05B091100530910C05D6
:1009800023E0230F2D3720F40196A11DB11D05C0D2
:1009900026E8230F0296A11DB11D20930C0580931C
:1009A0000D0590930E05A0930F05B093100580914F
:1009B000080590910905A0910A05B0910B050196D3
:1009C000A11DB11D8093080590930905A0930A0508
:1009D000B0930B05BF91AF919F918F913F912F9154
:1009E0000F900FBE0F901F901895CF92DF92EF924D
:1009F000FF920F931F93CF93DF936C017A018B01CA
:100A0000C0E0D0E0CE15DF0589F0D8016D918D01F1
:100A1000D601ED91FC910190F081E02DC601099580
:100A2000892B11F47E0102C02196ECCFC701DF9122
:100A3000CF911F910F91FF90EF90DF90CF9008958D
:100A40000E9424100F931F938091BF080E940A04F4
:100A500021E0892B09F020E09091B00820FB90F96B
:100A60009093B0088091B108222331F08160809387
:100A7000B10892FD30C004C08E7F8093B1082BC0B6
:100A80000E949F040091B5081091B6082091B70804
:100A90003091B808DC01CB01801B910BA20BB30B8A
:100AA00081359105A105B105B0F08091B0088D7F29
:100AB0008460877F8093B0080E949F046093B5088C
:100AC0007093B6088093B7089093B8088091B008E7
:100AD00080628093B0088091B00880FD43C082FF9F
:100AE00041C00E949F040091B5081091B608209162
:100AF000B7083091B808DC01CB01801B910BA20B29
:100B0000B30B81359105A105B10560F10E949F04E9
:100B10000091B5081091B6082091B7083091B80837
:100B2000DC01CB01801B910BA20BB30B843F9140E6
:100B3000A105B105B8F48091B0088B7F8093B0080F
:100B400083FD06C081FD04C0877F80648093B00868
:100B50000E949F046093B5087093B6088093B7080D
:100B60009093B8088091B00880FF24C082FF22C013
:100B70000E949F040091B5081091B6082091B70813
:100B80003091B808DC01CB01801B910BA20BB30B99
:100B90008D3B9240A105B10568F08091B00881FDC0
:100BA00009C082608093B00883FD04C0877F80689D
:100BB0008093B0088091B00880FD11C082FF0FC003
:100BC00081FF0DC08B7F8093B0080E949F046093CB
:100BD000B5087093B6088093B7089093B8088091D1
:100BE000BD080E940A048093B2088091BE080E944A
:100BF0000A042091B208880F991F820F911D8093DB
:100C0000B2089091B308981709F48EC00E949F040F
:100C10000091B5081091B6082091B7083091B80836
:100C2000DC01CB01801B910BA20BB30B0697A10536
:100C3000B10508F479C01092B4088091B2088330ED
:100C400061F48091B308823011F481E003C08130F7
:100C500081F482E08093B4080CC081110AC08091B5
:100C6000B10884FD06C08091B308813071F38230F1
:100C700081F38091B408882309F443C08091B008BF
:100C800080618093B0080E949F040091B908109180
:100C9000BA082091BB083091BC08AB01BC01401BD5
:100CA000510B620B730B8091AF08082E000C990B4F
:100CB000AA0BBB0B481759076A077B0778F480918A
:100CC000B408813021F48091B108846005C082307D
:100CD00029F48091B10882608093B1080E949F043A
:100CE0006093B9087093BA088093BB089093BC08CE
:100CF0008091B00880FF05C08091B4088E5F80931A
:100D0000B4088091B2088093B3088091B0088860DD
:100D10008093B0080E949F046093B5087093B60852
:100D20008093B7089093B8081F910F910895809110
:100D3000B10883FD0E9422059091B00895FB882799
:100D400080F995FF03C09F7D9093B0080895EF92BE
:100D5000FF920F931F93CF93DF93062F682F8091FD
:100D6000B4060E94330460E08091B6060E9433040A
:100D7000F090B206E090B306C7E0D0E010E0B80112
:100D80000C2E02C0759567950A94E2F7617077277B
:100D90008E2D0E94330461E08F2D0E94330460E0A9
:100DA0008F2D0E943304219750F761E08091B606A1
:100DB000DF91CF911F910F91FF90EF900C9433042E
:100DC000EF92FF920F931F93CF93DF937C01F70174
:100DD000C1917F01CC23E9F060E081E00E94A70689
:100DE00085E0C802E001112400E010E0F801EC0FFA
:100DF000FD1FEA57FF4F608181E00E94A7060F5F49
:100E00001F4F0530110591F760E081E00E94A706B1
:100E1000DECFDF91CF911F910F91FF90EF9008955A
:100E2000CF93C62F682F606880E00E94A7066C2FC2
:100E3000606480E0CF910C94A706CF93DF93C8EF56
:100E4000D1E060E081E00E94A7062197D1F760E041
:100E500070E080E090E0DF91CF910C941007E9E121
:100E6000F5E0A089B18982E08C93A485B5851C92B8
:100E7000A685B7858FEC8C93108EA489B58986E002
:100E80008C93A289B3898C9180618C93A289B38958
:100E90008C9188608C93A289B3898C9180688C93A3
:100EA0000288F389E02D80818F7D80830895809171
:100EB000B10883FD0E9422058091B408823021F49C
:100EC0001092B40881E0089580E008958091B108FF
:100ED00083FD0E9422058091B408813019F410929C
:100EE000B408089580E008956115710579F0FB015B
:100EF00001900020E9F73197AF01461B570BDC0149
:100F0000ED91FC910280F381E02D099480E090E066
:100F100008954F925F926F927F92EF92FF920F939C
:100F20001F93CF93DF93CDB7DEB7A1970FB6F89499
:100F3000DEBF0FBECDBF7C01FA01CB0119A222306A
:100F400008F42AE08E010F5D1F4F422E512C612CB8
:100F5000712CBF01A30192010E944C0FF901CA013B
:100F6000015011096A3014F4605D01C0695CD80158
:100F70006C93232B242B252B61F7B801C7010E940A
:100F80007407A1960FB6F894DEBF0FBECDBFDF91F8
:100F9000CF911F910F91FF90EF907F906F905F9096
:100FA0004F9008950F931F93CF93DF93EC010E940E
:100FB00074078C016DED73E0CE010E947407800F01
:100FC000911FDF91CF911F910F9108950C94740799
:100FD000789484B5826084BD84B5816084BD85B514
:100FE000826085BD85B5816085BD80916E00816020
:100FF00080936E00109281008091810082608093C6
:1010000081008091810081608093810080918000C7
:101010008160809380008091B10084608093B100F2
:101020008091B00081608093B00080917A008460EC
:1010300080937A0080917A00826080937A00809118
:101040007A00816080937A0080917A008068809332
:101050007A001092C1001092FA051092FB051092CE
:10106000FC051092FD051092B8051092B90510927A
:10107000BA051092BB050E949F046B017C014B01D5
:101080005C0128EB820E2BE0921EA11CB11C0E9479
:101090009F046C157D058E059F0528F08616970622
:1010A000A806B906A0F789E195E09093F905809329
:1010B000F8050E942F070E949F046093B805709363
:1010C000B9058093BA059093BB056EEC73E08091EF
:1010D000F8059091F9050E94E6070E949F046B01B4
:1010E0007C014B015C013AE0830E911CA11CB11CF8
:1010F0000E949F046C157D058E059F0528F08616BD
:101100009706A806B906A0F781E08093CC050E9457
:101110002F0760E08091B5060E94330461E0809162
:10112000B5060E94330461E280E00E94A70664EBEA
:1011300080E00E94A70664E080E00E94A70664E1C8
:1011400080E00E94A70660E280E00E94A7066CE0B3
:1011500080E00E94A7060E941D0780EE93E0909316
:101160009F0680939E0685EE93E09093770680938A
:1011700076066EE976E086E796E00E94FE018AEE4A
:1011800093E090938B0680938A066EE976E08AE876
:1011900096E00E94FE0189E392E090939D06809381
:1011A0009C068FEE93E090936306809362066EE94F
:1011B00076E082E696E00E94FE0188EF93E090934D
:1011C0004F0680934E0666E776E08EE496E00E9436
:1011D000FE0182E094E090933B0680933A0666E736
:1011E00076E08AE396E00E94FE010EE111E022E043
:1011F00045E060E070E088E492E40E94380C88E109
:1012000091E090931306809312066EE476E082E1FB
:1012100096E00E94FE0182ED92E090932506809375
:10122000240602E111E022E045E060E070E0CB013D
:101230000E94380C8CE091E090932706809326065C
:101240006EE476E086E296E00E94FE0106E011E0A0
:1012500020E043E060E070E080E291E40E94380C1E
:1012600080E091E09093FF058093FE056EE476E0C8
:101270008EEF95E00E94FE018EE996E00E948E02BC
:1012800054EFC52EDD24D394E12CF12C0E949F0451
:10129000672B682B692B41F40E949F046230710513
:1012A0008105910508F412C10E949F046093150501
:1012B000709316058093170590931805809011057B
:1012C00090901205A0901305B0901405681579054B
:1012D0008A059B0540F46093110570931205809375
:1012E0001305909314058090110590901205A0901D
:1012F0001305B09014059B01AC01281939094A095E
:101300005B0949015A013AEF83169104A104B10423
:1013100008F4DCC0609311057093120580931305E7
:1013200090931405C092C405D092C505E092C605FD
:10133000F092C7051092C8051092C9051092CA050F
:101340001092CB058091BC059091BD05A091BE0582
:10135000B091BF058093C0059093C105A093C205CD
:10136000B093C3050E949F046093BC057093BD05B4
:101370008093BE059093BF050E949F046093B805BB
:101380007093B9058093BA059093BB050E949F04A2
:101390004B015C016CE074E08091F8059091F905D7
:1013A0000E94E6072AE041E050E060E070E08091B2
:1013B000F8059091F9050E94890763E174E0809136
:1013C000F8059091F9050E94E6072AE0B501A4010D
:1013D0008091F8059091F9050E94890765E174E014
:1013E0008091F8059091F9050E94E6078091BC056F
:1013F0009091BD05A091BE05B091BF05B501A401B6
:10140000481B590B6A0B7B0B2AE08091F8059091E1
:10141000F9050E94890765E174E08091F8059091D3
:10142000F9050E94E6074091BC055091BD05609109
:10143000BE057091BF058091C0059091C105A09136
:10144000C205B091C305481B590B6A0B7B0B2AE000
:101450008091F8059091F9050E94890767E174E091
:101460008091F8059091F9050E94E6070E949F047B
:10147000AB01BC012AE08091F8059091F9050E942A
:10148000890769E174E08091F8059091F9050E945F
:10149000D2070E949F044B015C012B013C0142E0FA
:1014A000440E511C611C711C0E949F046815790533
:1014B0008A059B0508F0E4C00E949F046093BC0568
:1014C0007093BD058093BE059093BF050E942205D1
:1014D0000E946607882371F1E0912401F0912501B3
:1014E000808991890197248135812817390718F45B
:1014F000318B208B02C0918B808BCF0140960E9454
:101500006B0260E274E089E195E00E94E607E091F9
:101510002401F09125014089518960E070E02AE0C2
:1015200089E195E00E9489076DED73E089E195E01E
:101530000E9474070E945707882361F1E0912401FB
:10154000F0912501808991890196648175816F5F91
:101550007F4F0E940A10918B808BCF0140960E9492
:101560006B0269E374E089E195E00E94E607E0918F
:101570002401F09125014089518960E070E02AE062
:1015800089E195E00E9489076DED73E089E195E0BE
:101590000E9474070E949706882309F46EC064E9CC
:1015A00073E089E195E00E94D207C0912401D091B7
:1015B000250188899989009799F48A819B81892BD3
:1015C00009F457C063E574E089E195E00E94D20711
:1015D0008A819B810E948E020A80DB81C02D49C0D6
:1015E000FC013296EE0FFF1FEC0FFD1F0190F08102
:1015F000E02D84819581892B09F563E774E089E109
:1016000095E00E94D207E889F9893296EE0FFF1F14
:10161000EC0FFD1F0190F081E02D0288F389E02D91
:10162000309729F00995CE010E948E0222C066EA09
:1016300074E089E195E00E94D2071BC068EE74E077
:1016400089E195E00E94D207E889F9893296EE0F88
:10165000FF1FEC0FFD1F808191810E948E028889FF
:1016600099890296880F991FC80FD91F0990D881B0
:10167000C02DD0932501C09324010E94CB0106CE3A
:10168000461657066806790608F00ECF15CFCF9399
:10169000DF93E9E1F5E01382128288EE93E0A0E0A7
:1016A000B0E084839583A683B7838FE093E0918332
:1016B000808385EC90E09587848784EC90E0978721
:1016C000868780EC90E0918B808B81EC90E0938B0F
:1016D000828B82EC90E0958B848B86EC90E0978BEC
:1016E000868B118E128E138E148EE6EBF5E0168229
:1016F0001782108611861286138614861586168622
:101700001786108A118A128A138A148A158ACFEAD8
:10171000D8E082E388831E821F821886198682E0C1
:101720008E8789E08F8788E0888B60E082E00E9466
:10173000630460E08F850E94630462E088890E94F0
:1017400063048E850E940A048B838F850E940A049D
:101750002B81880F991F820F911D8B838C8361E0F1
:1017600087E00E94630461E086E00E94630461E018
:1017700085E00E94630461E084E00E94630461E00C
:1017800083E00E946304E2EBF6E083E0808384E080
:10179000818385E0828386E0838387E08483EEE92A
:1017A000F6E0138212821582148281E090E0918B20
:1017B000808B138A128AEAE8F6E01382128215827D
:1017C0001482918B808B138A128AE6E7F6E01382EB
:1017D000128215821482918B808B138A128AE2E620
:1017E000F6E01382128215821482918B808B138A09
:1017F000128AEEE4F6E01382128215821482918B33
:10180000808B138A128AEAE3F6E013821282158231
:101810001482918B808B138A128AE6E2F6E013829F
:10182000128215821482918B808B138A128AE2E1D4
:10183000F6E01382128215821482918B808B138AB8
:10184000128AEEEFF5E01382128215821482918BD8
:10185000808B138A128AE0ECF8E0138212821582E0
:101860001482918B808B138A128ADF91CF91089515
:10187000EF920F931F93CF93DF93E80147FD02C0D0
:1018800034E001C034E1E42F440FFF0BF7FF03C045
:10189000F195E195F109E32E022F2E2FAE010E9462
:1018A000580CCE01DF91CF911F910F91EF900895C9
:1018B0004F925F926F927F929F92AF92BF92CF9220
:1018C000DF92EF92FF920F931F93CF93DF93CDB7E9
:1018D000DEB729970FB6F894DEBF0FBECDBF6A0101
:1018E000122FB02E2BE3201720F0FF24F394F00EDC
:1018F00002C0BCE3FB2E0F2D27E0AE014F5F5F4F10
:101900000E94E60DAC018981982F9970913031F0D9
:10191000E1FC06C0E0FE06C090E205C09DE203C007
:101920009BE201C090E0EE2DE07183FF3CC091117D
:1019300002C083E001C084E0811718F4212F281B26
:1019400001C020E0E1110BC0F601822F30E28823B4
:1019500019F031938150FBCFC20ED11C20E09923A6
:1019600029F0D6019C93F60131966F01C6010396CA
:10197000E2FE0AC03EE4D6013C9341E411964C934A
:10198000119712963C9306C03EE6F601308341E67D
:1019900041833283FC01322F40E2332309F442C0F9
:1019A00041933150FACF82FF44C0911102C083E0CD
:1019B00001C084E0811718F4212F281B01C020E00A
:1019C000E1110BC0F601822F30E2882319F0319328
:1019D0008150FBCFC20ED11C20E0992329F0D60103
:1019E0009C93F60131966F01C6010396E2FE0BC08F
:1019F00039E4D6013C933EE411963C93119736E4CA
:101A000012963C9307C039E6F60130833EE63183F7
:101A100036E63283FC01322F40E2332319F0419342
:101A20003150FBCFFC01E20FF11D10828EEF9FEFD2
:101A3000B7C0F1E0911101C0F0E06F2F70E0141613
:101A4000150624F49A012F5F3F4F02C021E030E0D9
:101A5000260F371FBB2029F06B2D70E06F5F7F4F83
:101A600002C060E070E0260F371F612F70E026177C
:101A700037071CF4121B212F01C020E03E2D3871C6
:101A800059F4D601322F60E2332319F06D933150AF
:101A9000FBCFC20ED11C20E0FF2331F0D6019C9376
:101AA000B6016F5F7F4F6B01E1110BC0F601922F02
:101AB00030E3992319F031939150FBCFC20ED11C22
:101AC00020E09F2D940F3A81782F7071A72E84FF0C
:101AD00003C0313309F49150191624F4993018F0E9
:101AE00098E001C091E0E42F852F57FF02C0E0E0AD
:101AF00080E06E2F782FE0E0F0E0AEE29A2E3A011F
:101B0000691A71082A01461A570A0B2D10E011951F
:101B1000019511096F3F8FEF780729F4D6019C9248
:101B2000C60101966C014617570784F066167706C2
:101B30006CF47F01E40CF51CA1E0B0E0AC0FBD1F1C
:101B4000EA0EFB1ED7011196BC9002C090E3B92E9D
:101B5000615071093196C60101967C0160177107C9
:101B600024F0D601BC926C01D5CF6417750741F4FF
:101B7000363320F4353321F4A11002C081E3B82EAE
:101B8000F601B082F701822F90E2882319F0919339
:101B90008150FBCFF701E20FF11D108280E090E051
:101BA00029960FB6F894DEBF0FBECDBFDF91CF915F
:101BB0001F910F91FF90EF90DF90CF90BF90AF906B
:101BC0009F907F906F905F904F900895283008F01D
:101BD00027E03327DA01990F311D87FD91600096C8
:101BE0006105710539F432602E5F3D9330E32A952B
:101BF000E1F708959F3F30F080387105610509F0E5
:101C00003C5F3C5F3D93913008F08068911DDF930D
:101C1000CF931F930F93FF92EF92192F987F969572
:101C2000E92F96959695E90FFF27EE53FF4F9927D9
:101C30003327EE24FF24A701E701059008940794B9
:101C400028F4360FE71EF81E491F511D660F771F37
:101C5000881F991F0694A1F70590079428F4E70EB2
:101C6000F81E491F561FC11D770F881F991F661F39
:101C70000694A1F70590079428F4F80E491F561F03
:101C8000C71FD11D880F991F661F771F0694A1F7E4
:101C90000590079420F4490F561FC71FD81F990FAE
:101CA000661F771F881F0694A9F7849110951770F7
:101CB00041F0D695C79557954795F794E7941A95AF
:101CC000C1F7E8E6F0E068941590159135916591BB
:101CD000959105907FE27395E118F10A430B560B3D
:101CE000C90BD009C0F7E10CF11E431F561FC91FD5
:101CF000D01D7EF4703311F48A95E6CFE89401503C
:101D000030F0080F0AF40027021708F4202F23955B
:101D1000022F7A3328F079E37D932A95E9F710C0F2
:101D20007D932A9589F6069497956795379517952B
:101D30001794E118F10A430B560BC90BD00998F020
:101D400023957E9173957A3308F070E37C9320138A
:101D5000B8F77E9170617D9330F0839571E37D9348
:101D600070E32A95E1F71124EF90FF900F911F91F6
:101D7000CF91DF91992787FD90950895E89409C048
:101D800097FB3EF490958095709561957F4F8F4FAE
:101D90009F4F9923A9F0F92F96E9BB279395F695C4
:101DA000879577956795B795F111F8CFFAF4BB0F42
:101DB00011F460FF1BC06F5F7F4F8F4F9F4F16C0A6
:101DC000882311F096E911C0772321F09EE8872F30
:101DD000762F05C0662371F096E8862F70E060E0EC
:101DE0002AF09A95660F771F881FDAF7880F969565
:101DF000879597F9089597F99F6780E870E060E00C
:101E000008959FEF80EC089500240A941616170693
:101E100018060906089500240A94121613061406DB
:101E200005060895092E0394000C11F4882352F03E
:101E3000BB0F40F4BF2B11F460FF04C06F5F7F4FF6
:101E40008F4F9F4F089557FD9058440F551F59F0DD
:101E50005F3F71F04795880F97FB991F61F09F3F97
:101E600079F087950895121613061406551FF2CFC0
:101E70004695F1DF08C0161617061806991FF1CF10
:101E800086957105610508940895E894BB27662737
:101E90007727CB0197F90895A1E21A2EAA1BBB1B45
:101EA000FD010DC0AA1FBB1FEE1FFF1FA217B30726
:101EB000E407F50720F0A21BB30BE40BF50B661F3C
:101EC000771F881F991F1A9469F760957095809500
:101ED00090959B01AC01BD01CF0108955058BB27DF
:101EE000AA270E94860F0C94120F0E94040F38F04C
:101EF0000E940B0F20F039F49F3F19F426F40C9444
:101F0000010F0EF4E095E7FB0C94FB0EE92F0E9405
:101F1000230F58F3BA17620773078407950720F059
:101F200079F4A6F50C94450F0EF4E0950B2EBA2F1C
:101F3000A02D0B01B90190010C01CA01A0011124CF
:101F4000FF27591B99F0593F50F4503E68F11A167B
:101F5000F040A22F232F342F4427585FF3CF46950C
:101F600037952795A795F0405395C9F77EF41F162E
:101F7000BA0B620B730B840BBAF09150A1F0FF0FF8
:101F8000BB1F661F771F881FC2F70EC0BA0F621FE4
:101F9000731F841F48F4879577956795B795F795D4
:101FA0009E3F08F0B0CF9395880F08F09927EE0F69
:101FB0009795879508950E942B0F88F09F5798F06A
:101FC000B92F9927B751B0F0E1F0660F771F881F3E
:101FD000991F1AF0BA95C9F714C0B13091F00E9458
:101FE000450FB1E008950C94450F672F782F88278F
:101FF000B85F39F0B93FCCF3869577956795B3957F
:10200000D9F73EF490958095709561957F4F8F4FED
:102010009F4F0895AA1BBB1B51E107C0AA1FBB1FFE
:10202000A617B70710F0A61BB70B881F991F5A9564
:10203000A9F780959095BC01CD010895EE0FFF1F83
:102040000590F491E02D099481E090E0F8940C94CF
:062050002910F894FFCFF7
:1020560054696D653D202020202000004920202065
:102066003D20200000000000566D696E3D202020B6
:10207600202000009E06000000000000005F000017
:102086000007000700147F147F14242A7F2A1223D6
:102096001308646236495522500005030000001CEF
:1020A6002241000041221C0014083E081408083E84
:1020B60008080050300000080808080800606000A2
:1020C6000020100804023E5149453E00427F400070
:1020D60042615149462141454B311814127F102760
:1020E600454545393C4A4949300171090503364998
:1020F600494936064949291E00363600000056363B
:10210600000008142241001414141414004122146F
:10211600080201510906324979413E7E1111117EAC
:102126007F494949363E414141227F4141221C7F38
:10213600494949417F090909013E4149497A7F08D0
:1021460008087F00417F41002040413F017F08147D
:1021560022417F404040407F020C027F7F040810EE
:102166007F3E4141413E7F090909063E4151215EBC
:102176007F09192946464949493101017F01013F35
:102186004040403F1F2040201F3F4038403F6314DF
:1021960008146307087008076151494543007F41E9
:1021A600410002040810200041417F0004020102A0
:1021B600044040404040000102040020545454783A
:1021C6007F484444383844444420384444487F389F
:1021D60054545418087E0901020C5252523E7F088C
:1021E60004047800447D40002040443D007F1028D0
:1021F600440000417F40007C041804787C080404F5
:102206007838444444387C14141408081414187C90
:102216007C080404084854545420043F4440203C9D
:102226004040207C1C2040201C3C4030403C442840
:102236001028440C5050503C4464544C440008361A
:10224600410000007F000000413608001008081019
:102256000878464146781EA16121120000000062FE
:1022660001F5042B0109011D01A901416464696E90
:1022760067206E657720706172656E7420666F7276
:102286002000416464696E67206E65772063686923
:102296006C6420666F722000506172656E742061F6
:1022A60064646564207375636365737366756C6CCB
:1022B6000A0A00696E666F4D656E7546756E632017
:1022C600697320737461727465640056455253498C
:1022D6004F4E0076302E33370032312E31312E32CA
:1022E600303139005072657373003E003C3C204229
:1022F60041434B0048756C69207469206E652072F5
:1023060061626F74616573680053415645004348C6
:10231600414E4745533F00594553004E4F00564DD9
:102326004450565F317C315F564D4450560D0A007D
:102336004D41494E004C6F616400496E666F005313
:10234600657474696E67730049203D20636F6E7310
:10235600740050203D20636F6E737400564D4450D8
:10236600455F003A323A007C005F564D44504500C6
:102376004C4546543A20706F696E746572506F739F
:102386006974696F6E203D200052494748543A20CF
:10239600706F696E746572506F736974696F6E20C1
:1023A6003D2000414354494F4E3A205472792074DF
:1023B6006F2053686F7720506172656E74204D658B
:1023C6006E7500414354494F4E3A20546865726514
:1023D600206973206E6F206368696C64732E2054C5
:1023E600727920746F206D616B6520656E64206163
:1023F6006374696F6E005741524E494E473A2054F6
:1024060068697320697320656E6420706F696E74E5
:10241600206F66206D656E752C2062757420746859
:10242600657265206973206E6F20656E642066751F
:102436006E6374696F6E2100414354494F4E3A20D2
:1024460054727920746F2053686F77206368696CC3
:0824560064204D656E75000065
:107800000C94343C0C94513C0C94513C0C94513CE1
:107810000C94513C0C94513C0C94513C0C94513CB4
:107820000C94513C0C94513C0C94513C0C94513CA4
:107830000C94513C0C94513C0C94513C0C94513C94
:107840000C94513C0C94513C0C94513C0C94513C84
:107850000C94513C0C94513C0C94513C0C94513C74
:107860000C94513C0C94513C11241FBECFEFD8E036
:10787000DEBFCDBF11E0A0E0B1E0ECE9FFE702C060
:1078800005900D92A230B107D9F712E0A2E0B1E065
:1078900001C01D92AD30B107E1F70E942D3D0C945F
:1078A000CC3F0C94003C982F959595959595959582
:1078B000905D8F708A307CF0282F295A8091C0000B
:1078C00085FFFCCF9093C6008091C00085FFFCCF60
:1078D0002093C6000895282F205DF0CF982F809127
:1078E000C00085FFFCCF9093C6000895EF92FF92F1
:1078F0000F931F93EE24FF2487018091C00087FD22
:1079000017C00894E11CF11C011D111D81E4E8164B
:1079100082E4F8068FE0080780E0180770F3E09132
:107920000401F091050109958091C00087FFE9CF1E
:107930008091C6001F910F91FF90EF9008950E94D3
:10794000763C982F8091C00085FFFCCF9093C600B5
:1079500091362CF490330CF09053892F089597555D
:10796000892F08951F930E949F3C182F0E949F3CCF
:107970001295107F810F1F9108951F93182F882350
:1079800021F00E94763C1150E1F71F9108951F935A
:10799000182F0E94763C803249F0809103018F5F5E
:1079A000809303018530C1F01F9108958091C0003C
:1079B00085FFFCCF84E18093C6008091C00085FFE5
:1079C000FCCF1093C6008091C00085FFFCCF80E102
:1079D0008093C6001F910895E0910401F091050184
:1079E00009951F9108950E94763C803241F0809164
:1079F00003018F5F80930301853081F008958091AA
:107A0000C00085FFFCCF84E18093C6008091C00058
:107A100085FFFCCF80E18093C6000895E0910401CA
:107A2000F09105010995089540E951E08823A1F0FE
:107A30002D9A28EE33E0FA013197F1F721503040CA
:107A4000D1F72D9828EE33E0FA013197F1F7215064
:107A50003040D1F7815061F708953F924F925F9285
:107A60006F927F928F929F92AF92BF92CF92DF924E
:107A7000EF92FF920F931F93CF93DF93000080E16B
:107A80008093C4001092C50088E18093C10086E015
:107A90008093C2005098589A259A81E00E94143D24
:107AA00024E1F22E9EE1E92E85E9D82E0FE0C02ECA
:107AB00010E1B12EAA24A394B1E49B2EA6E58A2E50
:107AC000F2E57F2EE0E26E2E79E4572E63E5462E36
:107AD00050E5352E0E94763C8033B1F18133B9F107
:107AE000803409F46FC0813409F476C0823409F41B
:107AF00085C0853409F488C0803531F1823521F1A3
:107B0000813511F1853509F485C0863509F48DC0BC
:107B1000843609F496C0843709F403C1853709F423
:107B200072C1863709F466C0809103018F5F80932C
:107B30000301853079F6E0910401F0910501099582
:107B40000E94763C803351F60E94F33CC3CF0E94E2
:107B5000763C803249F78091C00085FFFCCFF092DF
:107B6000C6008091C00085FFFCCF9092C600809136
:107B7000C00085FFFCCF8092C6008091C00085FFC9
:107B8000FCCF7092C6008091C00085FFFCCF609250
:107B9000C6008091C00085FFFCCF5092C600809146
:107BA000C00085FFFCCF4092C6008091C00085FFD9
:107BB000FCCF3092C6008091C00085FFFCCFB09210
:107BC000C60088CF0E94763C863808F4BDCF0E945C
:107BD000763C0E94F33C7ECF0E94763C803809F4CC
:107BE0009CC0813809F40BC1823809F43CC1883942
:107BF00009F48FC080E00E94C73C6CCF84E10E94F2
:107C0000BD3C0E94F33C66CF85E00E94BD3C0E94D3
:107C1000F33C60CF0E94763C809306010E94763C44
:107C2000809307010E94F33C55CF0E94763C80333D
:107C300009F41DC183E00E94BD3C80E00E94C73C66
:107C400049CF0E94763C809309020E94763C809343
:107C5000080280910C028E7F80930C020E94763C79
:107C6000853409F415C18091080290910902892B8D
:107C700089F000E010E00E94763CF801E85FFE4FDA
:107C800080830F5F1F4F80910802909109020817AF
:107C9000190788F30E94763C803209F045CF809125
:107CA0000C0280FF01C16091060170910701660F0F
:107CB000771F7093070160930601A0910802B091AD
:107CC00009021097C9F0E8E0F1E09B01AD014E0F09
:107CD0005F1FF999FECF32BD21BD819180BDFA9A17
:107CE000F99A2F5F3F4FE417F50799F76A0F7B1F4B
:107CF00070930701609306018091C00085FFFCCF5F
:107D0000F092C6008091C00085FFFCCFB092C60003
:107D1000E1CE83E00E94C73CDDCE82E00E94C73CFA
:107D2000D9CE0E94763C809309020E94763C8093D3
:107D300008028091060190910701880F991F909386
:107D40000701809306010E94763C853409F4A6C0A1
:107D500080910C028E7F80930C020E94763C8032D0
:107D600009F0B8CE8091C00085FFFCCFF092C6002C
:107D7000609108027091090261157105B9F140E046
:107D800050E080910C02A82FA170B82FB27011C0E2
:107D9000BB2309F45CC0E0910601F0910701319624
:107DA000F0930701E09306014F5F5F4F46175707B7
:107DB000E8F4AA2369F3F999FECF209106013091E6
:107DC000070132BD21BDF89A90B58091C00085FFB2
:107DD000FCCF9093C6002F5F3F4F30930701209355
:107DE00006014F5F5F4F4617570718F38091C00099
:107DF00085FDE5CE8091C00085FFF8CFE0CE81E023
:107E00000E94C73C67CE0E94763C803209F08CCE3F
:107E10008091C00085FFFCCFF092C6008091C00029
:107E200085FFFCCFE092C6008091C00085FFFCCFAB
:107E3000D092C6008091C00085FFFCCFC092C600E2
:107E40008091C00085FFFCCFB092C60043CEE09188
:107E50000601F091070194918091C00085FFFCCF4D
:107E60009093C6009CCF80E10E94C73C33CE0E9415
:107E7000763C0E94763C182F0E94763C112309F430
:107E800083C0113009F484C08FE00E94C73C22CE29
:107E900080910C02816080930C02E5CE80910C02EF
:107EA000816080930C0259CF809107018823880F4D
:107EB000880B8A2180930B02809106019091070123
:107EC000880F991F90930701809306018091080203
:107ED00080FF09C080910802909109020196909359
:107EE000090280930802F894F999FECF1127E091D6
:107EF0000601F0910701C8E0D1E08091080290915D
:107F00000902103091F40091570001700130D9F34B
:107F100003E000935700E89500915700017001308D
:107F2000D9F301E100935700E89509901990009169
:107F3000570001700130D9F301E000935700E89534
:107F40001395103498F011270091570001700130FB
:107F5000D9F305E000935700E895009157000170B0
:107F60000130D9F301E100935700E895329602976A
:107F700009F0C7CF103011F00296E5CF112480919F
:107F8000C00085FFB9CEBCCE8EE10E94C73CA2CD19
:0C7F900085E90E94C73C9ECDF894FFCF0D
:027F9C00800063
:040000030000780081
:00000001FF