:100000000C94DF000C9407010C9407010C94070179
:100010000C9407010C9407010C9407010C94070140
:100020000C9407010C9407010C9407010C94070130
:100030000C9407010C9407010C9407010C94070120
:100040000C9470090C9407010C943E090C94180947
:100050000C9407010C9407010C9407010C94070100
:100060000C9407010C94070100407A10F35A00A089
:10007000724E18090010A5D4E80000E87648170071
:1000800000E40B54020000CA9A3B000000E1F505B1
:10009000000080969800000040420F000000A086FB
:1000A00001000000102700000000E803000000002D
:1000B0006400000000000A000000000001000000D1
:1000C00000002C76D888DC674F0823DFC1DFAE59EB
:1000D000E1B1B796E5E3E453C63AE651997696E87E
:1000E000E6C28426EB898C9B62ED407C6FFCEFBC02
:1000F0009C9F40F2BAA56FA5F490055A2AF75C932D
:100100006B6CF9676DC11BFCE0E40D47FEF520E662
:10011000B500D0ED902E0300943577050080841E45
:10012000080000204E0A000000C80C333333330FA0
:10013000986E12831141EF8D2114893BE65516CF3D
:10014000FEE6DB18D1844B381BF77C1D901DA4BB49
:10015000E424203284725E228100C9F124ECA1E5FE
:100160003D2700000000240027002A0000000000B6
:10017000250028002B000000000023002600290095
:10018000040404040404040402020202020203033D
:100190000303030301020408102040800102040845
:1001A00010200102040810200000000800020100D5
:1001B000000304070000000000000000BA09112439
:1001C0001FBECFEFD8E0DEBFCDBF15E0A0E0B1E0AD
:1001D000ECE5F2E202C005900D92A632B107D9F724
:1001E00028E0A6E2B5E001C01D92A63AB207E1F709
:1001F00010E0CFEDD0E004C02197FE010E94211154
:10020000CE3DD107C9F70E94990A0C942C110C9489
:100210000000CF92DF92EF92FF920F931F93CF9344
:10022000DF936C017A018B01C0E0D0E0CE15DF05D1
:1002300089F0D8016D918D01D601ED91FC9101906D
:10024000F081E02DC6010995892B11F47E0102C0D1
:100250002196ECCFC701DF91CF911F910F91FF90B5
:10026000EF90DF90CF900895FC01918D828D9817CB
:1002700061F0828DDF01A80FB11D5D968C91928D8A
:100280009F5F9F73928F90E008958FEF9FEF089587
:10029000FC01918D828D981731F0828DE80FF11D50
:1002A000858D90E008958FEF9FEF0895FC01918D6B
:1002B000228D892F90E0805C9F4F821B91098F7364
:1002C0009927089583E395E00E94560121E0892B48
:1002D00009F420E0822F0895FC01848DDF01A80F2E
:1002E000B11DA35ABF4F2C91848D90E001968F735E
:1002F0009927848FA689B7892C93A089B1898C917D
:1003000080648C93938D848D981306C00288F38942
:10031000E02D80818F7D80830895EF92FF920F936F
:100320001F93CF93DF93EC0181E0888F9B8D8C8DA1
:10033000981305C0E889F989808185FD24C0F62ECF
:100340000B8D10E00F5F1F4F0F731127E02E8C8D68
:10035000E8120CC00FB607FCFACFE889F989808152
:1003600085FFF5CFCE010E946C01F1CF8B8DFE0190
:10037000E80FF11DE35AFF4FF0820B8FEA89FB89EA
:100380008081806207C0EE89FF896083E889F989EE
:1003900080818064808381E090E0DF91CF911F9124
:1003A0000F91FF90EF900895CF93DF93EC01888D2C
:1003B0008823C9F0EA89FB89808185FD05C0A88969
:1003C000B9898C9186FD0FC00FB607FCF5CF8081EF
:1003D00085FFF2CFA889B9898C9185FFEDCFCE0139
:1003E0000E946C01E7CFDF91CF91089580E090E00B
:1003F000892B29F00E94620181110C94000008955C
:10040000833081F028F4813099F08230A1F0089592
:100410008730A9F08830B9F08430D1F48091800021
:100420008F7D03C0809180008F7780938000089536
:1004300084B58F7702C084B58F7D84BD0895809187
:10044000B0008F7703C08091B0008F7D8093B000A3
:100450000895CF93DF93282F30E0F901E855FE4F40
:100460008491F901EC56FE4FD491F901E058FE4F0A
:10047000C491CC2391F081110E940002EC2FF0E096
:10048000EE0FFF1FEA58FE4FA591B491EC91ED23BA
:1004900081E090E021F480E002C080E090E0DF9114
:1004A000CF9108951F93CF93DF93282F30E0F90168
:1004B000E855FE4F8491F901EC56FE4FD491F901B5
:1004C000E058FE4FC491CC23C9F0162F81110E9431
:1004D0000002EC2FF0E0EE0FFF1FE459FE4FA59154
:1004E000B4918FB7F894111105C09C91ED2FE09550
:1004F000E92302C0EC91ED2BEC938FBFDF91CF91FC
:100500001F910895CF93DF9390E0FC01EC56FE4FCE
:100510002491FC01E058FE4F8491882361F190E022
:10052000880F991FFC01EE59FE4FC591D491FC0133
:10053000E459FE4FA591B491611109C09FB7F89499
:100540008881209582238883EC912E230BC0623012
:1005500061F49FB7F8943881822F80958323888334
:10056000EC912E2B2C939FBF06C08FB7F894E88197
:100570002E2B28838FBFDF91CF9108952FB7F8944A
:1005800060912B0570912C0580912D0590912E0581
:100590002FBF08950F931F938091A5080E942902F1
:1005A00021E0892B09F020E09091960820FB90F93A
:1005B0009093960880919708222331F08160809370
:1005C000970892FD30C004C08E7F809397082BC09F
:1005D0000E94BE0200919B0810919C0820919D08EA
:1005E00030919E08DC01CB01801B910BA20BB30B59
:1005F00081359105A105B105B0F0809196088D7FF8
:100600008460877F809396080E94BE0260939B0857
:1006100070939C0880939D0890939E088091960803
:100620008062809396088091960880FD43C082FF87
:1006300041C00E94BE0200919B0810919C0820912D
:100640009D0830919E08DC01CB01801B910BA20B11
:10065000B30B81359105A105B10560F10E94BE0281
:1006600000919B0810919C0820919D0830919E0854
:10067000DC01CB01801B910BA20BB30B843F91409B
:10068000A105B105B8F4809196088B7F80939608F8
:1006900083FD06C081FD04C0877F80648093960837
:1006A0000E94BE0260939B0870939C0880939D08F3
:1006B00090939E088091960880FF24C082FF22C0FC
:1006C0000E94BE0200919B0810919C0820919D08F9
:1006D00030919E08DC01CB01801B910BA20BB30B68
:1006E0008D3B9240A105B10568F08091960881FD8F
:1006F00009C082608093960883FD04C0877F80686C
:10070000809396088091960880FD11C082FF0FC0EB
:1007100081FF0DC08B7F809396080E94BE0260937C
:100720009B0870939C0880939D0890939E088091ED
:10073000A3080E942902809398088091A4080E942F
:10074000290220919808880F991F820F911D80938C
:10075000980890919908981709F48EC00E94BE02DB
:1007600000919B0810919C0820919D0830919E0853
:10077000DC01CB01801B910BA20BB30B0697A105EB
:10078000B10508F479C010929A08809198088330D6
:1007900061F480919908823011F481E003C08130C6
:1007A00081F482E080939A080CC081110AC0809184
:1007B000970884FD06C080919908813071F38230DA
:1007C00081F380919A08882309F443C080919608A8
:1007D0008061809396080E94BE0200919F0810914C
:1007E000A0082091A1083091A208AB01BC01401BD8
:1007F000510B620B730B80919508082E000C990B1E
:10080000AA0BBB0B481759076A077B0778F480913E
:100810009A08813021F480919708846005C0823065
:1008200029F4809197088260809397080E94BE0205
:1008300060939F087093A0088093A1089093A208EA
:100840008091960880FF05C080919A088E5F809302
:100850009A088091980880939908809196088860FA
:10086000809396080E94BE0260939B0870939C0838
:1008700080939D0890939E081F910F9108958091F9
:10088000970883FD0E94CA029091960895FB8827DD
:1008900080F995FF03C09F7D9093960808958091FD
:1008A000970883FD0E94CA0280919A08813019F44A
:1008B00010929A08089580E008958091970883FD2A
:1008C0000E94CA0280919A08823021F410929A08FC
:1008D00081E0089580E00895009769F0FC0101909F
:1008E0000020E9F73197AF01481B590BBC0183E3A6
:1008F00095E00C94090180E090E00895CF93DF9398
:100900000E946C04EC018FE193E00E946C048C0F58
:100910009D1FDF91CF9108958F929F92AF92BF92CA
:100920000F931F93CF93DF93CDB7DEB7A1970FB689
:10093000F894DEBF0FBECDBF19A2423008F44AE0E2
:100940008E010F5D1F4F842E912CA12CB12CA5017F
:1009500094010E94FF10E62FB901CA01015011094C
:10096000EA3014F4E05D01C0E95CD801EC93232B7C
:10097000242B252B61F7C8010E946C04A1960FB6A9
:10098000F894DEBF0FBECDBFDF91CF911F910F91C5
:10099000BF90AF909F908F9008950C946C040F932C
:1009A0001F93CF93DF938C01EB0182E293E00E94CF
:1009B000CD04F801808191810E947E04F801D383E7
:1009C000C28389E393E00E94CD04888199810E94CB
:1009D0007E042C813D81C90101969D838C832D5F0E
:1009E0003F4F220F331FFE01E20FF31F11830083DD
:1009F0008FE493E0DF91CF911F910F910C94CD0480
:100A0000EF92FF920F931F93CF93DF93062F682FE0
:100A100080919A060E94520260E080919C060E949A
:100A20005202F0909806E0909906C7E0D0E010E0FE
:100A3000B8010C2E02C0759567950A94E2F76170B3
:100A400077278E2D0E94520261E08F2D0E94520264
:100A500060E08F2D0E945202219750F761E0809153
:100A60009C06DF91CF911F910F91FF90EF900C9416
:100A70005202EF92FF920F931F93CF93DF937C016B
:100A8000F701C1917F01CC23E9F060E081E00E9491
:100A9000000585E0C802E001112400E010E0F80143
:100AA000EC0FFD1FE657FF4F608181E00E940005BB
:100AB0000F5F1F4F0530110591F760E081E00E9444
:100AC0000005DECFDF91CF911F910F91FF90EF9046
:100AD0000895CF93C62F682F606880E00E940005BC
:100AE0006C2F606480E0CF910C9400050F931F93EE
:100AF000CF93DF938C01C0E0D0E0BE0180E090E0B6
:100B00000E94690582EE93E00E9439052196C63065
:100B1000D10599F7F8016081718180E090E00E9431
:100B200069058AE693E0DF91CF911F910F910C94B4
:100B30003905CF93DF93C8EFD1E060E081E00E94F8
:100B400000052197D1F760E070E080E090E0DF9150
:100B5000CF910C9469058CE693E00E947E040E947C
:100B6000990560E070E082E190E00E94690584E808
:100B700093E00E94390562E070E088E190E00E9415
:100B800069058CE893E00E94390564E070E088E034
:100B900090E00E94690582E993E00E9439050E9475
:100BA000CA020E943F048823D1F38DE993E00C949C
:100BB0007E04EF92FF920F931F93CF93DF93EC018C
:100BC0000E9499058A819B8160E070E0892B79F40D
:100BD00088E090E00E946905888199810E9439052A
:100BE0007E0186E0E80EF11C00E010E007C088E01E
:100BF00090E00E94690583EA93E0F0CF8C819D81AB
:100C00000817190780F40F5F1F4FB80188E090E0C4
:100C10000E946905D701ED91FD917D01808191814F
:100C20000E943905EBCFCE014096DF91CF911F9105
:100C30000F91FF90EF900C9476054F925F926F9218
:100C40007F928F929F92AF92BF92CF92DF92EF925C
:100C5000FF926B017C019B01AC010E94E61088238E
:100C600019F08BEA93E01AC046015701E894B7F8EF
:100C70002FEF3FEF4FE75FE7C501B4010E94E61099
:100C8000811110C02FEF3FEF4FE75FE7C501B401BF
:100C90000E948E0F181634F48FEA93E00E946C04C1
:100CA0007C018FC02FEF3FEF4FE75FE4C701B60134
:100CB0000E94741018161CF483EB93E0EFCF2FEF13
:100CC0003FEF4FE75FECC701B6010E948E0F87FD33
:100CD000F3CF20E030E0A901C701B6010E948E0FDA
:100CE00087FF11C0E0913305F09134050190F08148
:100CF000E02D6DE283E395E009955C01F7FAF0944D
:100D0000F7F8F09402C0A12CB12C2AE037ED43EAA9
:100D10005BE3C701B6010E94220F2B013C010E9438
:100D2000930F6B017C010E94C20F9B01AC01C301B8
:100D3000B2010E94210F2B013C014AE0C701B6011C
:100D40000E948C047C01EA0CFB1CE0913305F091BD
:100D500034050190F081E02D6EE283E395E0099582
:100D6000E80EF91E20E030E040E251E4C301B20198
:100D70000E9479102B013C010E94930F4B01A12C82
:100D8000B12C4AE0C501B4010E948C04E80EF91EA2
:100D9000C501B4010E94C20F9B01AC01C301B201A5
:100DA0000E94210F20E030E040E251E40E947910DF
:100DB0000E94930F80E090E04AE00E948C04E80ECD
:100DC000F91E8FE193E00E946C048E0D9F1DFF9031
:100DD000EF90DF90CF90BF90AF909F908F907F90DB
:100DE0006F905F904F9008950E942711AF92BF922D
:100DF000CF92DF92EF92FF920F931F93CF93DF93E7
:100E000087EB93E00E947E04C0902401D0902501DE
:100E1000E0902601F0902701C0E088E1A82E81E053
:100E2000B82E0E94CA020E944F04882351F02DEC74
:100E30003CEC4CEC5DE3C701B6010E94210F6B0155
:100E40007C010E945D04882351F02DEC3CEC4CECBD
:100E50005DE3C701B6010E94220F6B017C010E9475
:100E60003F04882309F47AC00E94990560E070E08D
:100E700089E190E00E9469058CEC93E00E943905BD
:100E800061E070E08FE090E00E94690581ED93E001
:100E90000E94390562E070E085E090E00E946905FB
:100EA0008091F8059091F9050E9439058AED93E04B
:100EB0000E94CD048091F8059091F9050E947E046E
:100EC0000E94CA0264E070E08AE090E00E94690536
:100ED00084EE93E00E94390564E070E08CE390E0DA
:100EE0000E94690588EE93E00E9439050E945D0426
:100EF0008823A9F064E070E082E090E00E94690538
:100F000082EE93E00E94390564E070E084E390E0B3
:100F10000E9469058AE693E00E943905C0E00E94BC
:100F20004F048823A9F064E070E084E390E00E941D
:100F3000690582EE93E00E94390564E070E082E08A
:100F400090E00E9469058AE693E00E943905C1E0BD
:100F50000E943F04882309F4A9CF04C0CC2381F068
:100F6000D1E004C0CC2309F43EC0D0E0C0922401FB
:100F7000D0922501E0922601F0922701C1E00DC038
:100F80000EE111E022E045E0C701B6010E949B0C92
:100F9000B092F905A092F805D1E061E070E088E038
:100FA00090E00E9469058091F8059091F9050E94F2
:100FB0003905D11136CF8BEE93E00E94CD046091BC
:100FC0002401709125018091260190912701DF91E4
:100FD000CF911F910F91FF90EF90DF90CF90BF9036
:100FE000AF900C941D0660912401709125018091B1
:100FF0002601909127010EE111E022E045E00E94D8
:101000009B0CB092F905A092F805D0E0C6CFAF9244
:10101000BF92CF92DF92EF92FF920F931F93CF93E5
:10102000DF9384EF93E00E947E04C0902F05D09060
:101030003005E0903105F0903205C0E08CE0A82E3C
:1010400081E0B82E0E94CA020E944F04882351F00A
:101050002DEC3CEC4CEC5DE3C701B6010E94210F86
:101060006B017C010E945D04882351F02DEC3CEC67
:101070004CEC5DE3C701B6010E94220F6B017C01BD
:101080000E943F04882309F47AC00E94990560E019
:1010900070E089E190E00E9469058CEC93E00E9489
:1010A000390561E070E08FE090E00E94690581ED14
:1010B00093E00E94390562E070E085E090E00E94D4
:1010C000690580910C0690910D060E9439058AED04
:1010D00093E00E94CD0480910C0690910D060E9431
:1010E0007E040E94CA0264E070E08AE090E00E9400
:1010F000690584EE93E00E94390564E070E08CE3BA
:1011000090E00E94690588EE93E00E9439050E94F4
:101110005D048823A9F064E070E082E090E00E9422
:10112000690582EE93E00E94390564E070E084E393
:1011300090E00E9469058AE693E00E943905C0E0CC
:101140000E944F048823A9F064E070E084E390E0FB
:101150000E94690582EE93E00E94390564E070E028
:1011600082E090E00E9469058AE693E00E943905DA
:10117000C1E00E943F04882309F4A9CF04C0CC2316
:1011800081F0D1E004C0CC2309F43EC0D0E0C0928D
:101190002F05D0923005E0923105F0923205C1E082
:1011A0000DC002E111E022E045E0C701B6010E9456
:1011B0009B0CB0920D06A0920C06D1E062E070E0AC
:1011C00088E090E00E94690580910C0690910D06E0
:1011D0000E943905D11136CF8EE094E00E94CD04F3
:1011E00060912F0570913005809131059091320505
:1011F000DF91CF911F910F91FF90EF90DF90CF90F3
:10120000BF90AF900C941D0660912F057091300532
:10121000809131059091320502E111E022E045E034
:101220000E949B0CB092F905A092F805D0E0C6CFC1
:101230001F920F920FB60F9211242F933F934F934B
:101240005F936F937F938F939F93AF93BF93EF932E
:10125000FF9383E395E00E946C01FF91EF91BF91B2
:10126000AF919F918F917F916F915F914F913F913E
:101270002F910F900FBE0F901F9018951F920F92F5
:101280000FB60F9211242F938F939F93EF93FF9399
:10129000E0914305F09144058081E0914905F0918A
:1012A0004A0582FD12C0908180914C058F5F8F733B
:1012B00020914D05821751F0E0914C05F0E0ED5C76
:1012C000FA4F958F80934C0501C08081FF91EF917B
:1012D0009F918F912F910F900FBE0F901F90189597
:1012E0001F920F920FB60F9211242F933F938F935B
:1012F0009F93AF93BF9380912B0590912C05A09164
:101300002D05B0912E0530912A0523E0230F2D37AE
:1013100020F40196A11DB11D05C026E8230F0296F9
:10132000A11DB11D20932A0580932B0590932C05B8
:10133000A0932D05B0932E05809126059091270549
:10134000A0912805B09129050196A11DB11D80939A
:10135000260590932705A0932805B0932905BF91F2
:10136000AF919F918F913F912F910F900FBE0F9052
:101370001F901895CF93DF93E3E3F5E01382128279
:1013800088EE93E0A0E0B0E084839583A683B783E2
:1013900083E193E09183808385EC90E09587848757
:1013A00084EC90E09787868780EC90E0918B808B2F
:1013B00081EC90E0938B828B82EC90E0958B848B18
:1013C00086EC90E0978B868B118E128E138E148E86
:1013D000C5E9D8E082E388831E821F8218861986B9
:1013E00082E08E8789E08F8788E0888B60E082E0EA
:1013F0000E94820260E08F850E94820262E08889FA
:101400000E9482028E850E9429028B838F850E9412
:1014100029022B81880F991F820F911D8B838C834A
:1014200061E087E00E94820261E086E00E94820221
:1014300061E085E00E94820261E084E00E94820215
:1014400061E083E00E948202E8E9F6E083E08083C5
:1014500084E0818385E0828386E0838387E08483E0
:10146000E4E8F6E0138212821582148281E090E0B3
:10147000918B808B138A128AE0E7F6E01382128246
:1014800015821482918B808B138A128AECE5F6E028
:101490001382128215821482918B808B138A128A96
:1014A000E8E4F6E01382128215821482918B808B1D
:1014B000138A128AE4E3F6E0138212821582148200
:1014C000918B808B138A128AE0E2F6E013821282FB
:1014D00015821482918B808B138A128AECE0F6E0DD
:1014E0001382128215821482918B808B138A128A46
:1014F000E8EFF5E01382128215821482918B808BC3
:10150000138A128AE4EEF5E01382128215821482A5
:10151000918B808B138A128AE0EDF5E013821282A0
:1015200015821482918B808B138A128ADF91CF915E
:101530000895789484B5826084BD84B5816084BD4B
:1015400085B5826085BD85B5816085BD80916E0061
:10155000816080936E001092810080918100826092
:1015600080938100809181008160809381008091CF
:1015700080008160809380008091B10084608093BE
:10158000B1008091B00081608093B00080917A00BA
:10159000846080937A0080917A00826080937A00E0
:1015A00080917A00816080937A0080917A008068CF
:1015B00080937A001092C100E0914305F0914405B8
:1015C00082E08083E0913F05F09140051082E09138
:1015D0004105F09142058FEC808310924B05E0911C
:1015E0004705F091480586E08083E0914505F0913C
:1015F0004605808180618083E0914505F091460534
:10160000808188608083E0914505F0914605808166
:1016100080688083E0914505F091460580818F7D4B
:10162000808360E080919B060E94520261E080917D
:101630009B060E94520261E280E00E94000564EB7A
:1016400080E00E94000564E080E00E94000564E103
:1016500080E00E94000560E280E00E9400056CE0EE
:1016600080E00E9400050E94990583E194E0909338
:1016700085068093840688E194E090935D068093CC
:101680005C0664E876E08CE596E00E94CF048DE18C
:1016900094E0909371068093700664E876E080E7AA
:1016A00096E00E94CF048BEA95E0909383068093A6
:1016B000820682E294E0909349068093480664E8AB
:1016C00076E088E496E00E94CF048BE294E0909369
:1016D0003506809334066CE576E084E396E00E945C
:1016E000CF0485E394E090932106809320066CE577
:1016F00076E080E296E00E94CF0460912401709130
:10170000250180912601909127010EE111E022E050
:1017100045E00E949B0C88E191E09093F90580934D
:10172000F80564E376E088EF95E00E94CF0486EF49
:1017300096E090930B0680930A0687E098E09093DA
:101740001F0680931E0660912F05709130058091D1
:1017500031059091320502E111E022E045E00E945E
:101760009B0C8CE091E090930D0680930C0664E353
:1017700076E08CE096E00E94CF0406E011E020E0E5
:1017800043E060E070E080E291E40E949B0C80E026
:1017900091E09093E5058093E40564E376E084EEC0
:1017A00095E00E94CF0484E896E00E94D9050E944B
:1017B000CA020E944F04882341F1E0912801F09170
:1017C000290180899189019724813581281739075A
:1017D00018F4318B208B02C0918B808BCF01409607
:1017E0000E9476058FE394E00E94CD04E0912801E9
:1017F000F09129016089718980E090E04AE00E94BF
:101800008C048FE193E00E946C040E945D048823A5
:1018100031F1E0912801F0912901808991890196A7
:10182000648175816F5F7F4F0E94EB10918B808B7D
:10183000CF0140960E94760588E594E00E94CD0491
:10184000E0912801F09129016089718980E090E0A0
:101850004AE00E948C048FE193E00E946C040E9495
:101860003F04882309F464C08DE993E00E947E045C
:10187000C0912801D091290188899989009789F41C
:101880008A819B81892B09F44FC082E794E00E94F2
:101890007E048A819B810E94D9050A80DB81C02D4C
:1018A00043C0FC013296EE0FFF1FEC0FFD1F0190AD
:1018B000F081E02D84819581892BE9F482E994E01F
:1018C0000E947E04E889F9893296EE0FFF1FEC0F23
:1018D000FD1F0190F081E02D0288F389E02D309703
:1018E00029F00995CE010E94D9051EC085EC94E02F
:1018F0000E947E0419C087E095E00E947E04E8897A
:10190000F9893296EE0FFF1FEC0FFD1F8081918148
:101910000E94D905888999890296880F991FC80F56
:10192000D91F0990D881C02DD0932901C0932801D7
:101930000E94F6013CCFEF920F931F93CF93DF935A
:10194000E80147FD02C034E001C034E1E42F440F58
:10195000FF0BF7FF03C0F195E195F109E32E022F8C
:101960002E2FAE010E94BB0CCE01DF91CF911F91B3
:101970000F91EF9008954F925F926F927F929F9296
:10198000AF92BF92CF92DF92EF92FF920F931F938D
:10199000CF93DF93CDB7DEB729970FB6F894DEBFAC
:1019A0000FBECDBF6A01122FB02E2BE3201720F0FF
:1019B000FF24F394F00E02C0BCE3FB2E0F2D27E0B2
:1019C000AE014F5F5F4F0E94490EAC018981982F95
:1019D0009970913031F0E1FC06C0E0FE06C090E263
:1019E00005C09DE203C09BE201C090E0EE2DE071D6
:1019F00083FF3CC0911102C083E001C084E08117E5
:101A000018F4212F281B01C020E0E1110BC0F601C2
:101A1000822F30E2882319F031938150FBCFC20E20
:101A2000D11C20E0992329F0D6019C93F601319630
:101A30006F01C6010396E2FE0AC03EE4D6013C9364
:101A400041E411964C93119712963C9306C03EE6E2
:101A5000F601308341E641833283FC01322F40E2BC
:101A6000332309F442C041933150FACF82FF44C07E
:101A7000911102C083E001C084E0811718F4212F86
:101A8000281B01C020E0E1110BC0F601822F30E2DB
:101A9000882319F031938150FBCFC20ED11C20E076
:101AA000992329F0D6019C93F60131966F01C60166
:101AB0000396E2FE0BC039E4D6013C933EE4119656
:101AC0003C93119736E412963C9307C039E6F60131
:101AD00030833EE6318336E63283FC01322F40E22A
:101AE000332319F041933150FBCFFC01E20FF11D7C
:101AF00010828EEF9FEFB7C0F1E0911101C0F0E0CE
:101B00006F2F70E01416150624F49A012F5F3F4FD3
:101B100002C021E030E0260F371FBB2029F06B2DDB
:101B200070E06F5F7F4F02C060E070E0260F371FEC
:101B3000612F70E0261737071CF4121B212F01C0FC
:101B400020E03E2D387159F4D601322F60E2332364
:101B500019F06D933150FBCFC20ED11C20E0FF2352
:101B600031F0D6019C93B6016F5F7F4F6B01E1119D
:101B70000BC0F601922F30E3992319F03193915065
:101B8000FBCFC20ED11C20E09F2D940F3A81782FFD
:101B90007071A72E84FF03C0313309F491501916D8
:101BA00024F4993018F098E001C091E0E42F852FDB
:101BB00057FF02C0E0E080E06E2F782FE0E0F0E019
:101BC000AEE29A2E3A01691A71082A01461A570A9A
:101BD0000B2D10E01195019511096F3F8FEF7807DC
:101BE00029F4D6019C92C60101966C01461757074D
:101BF00084F0661677066CF47F01E40CF51CA1E016
:101C0000B0E0AC0FBD1FEA0EFB1ED7011196BC90D1
:101C100002C090E3B92E615071093196C601019658
:101C20007C016017710724F0D601BC926C01D5CFFE
:101C30006417750741F4363320F4353321F4A110CD
:101C400002C081E3B82EF601B082F701822F90E244
:101C5000882319F091938150FBCFF701E20FF11D1A
:101C6000108280E090E029960FB6F894DEBF0FBE98
:101C7000CDBFDF91CF911F910F91FF90EF90DF903B
:101C8000CF90BF90AF909F907F906F905F904F905C
:101C90000895283008F027E03327DA01990F311D25
:101CA00087FD916000966105710539F432602E5F01
:101CB0003D9330E32A95E1F708959F3F30F0803857
:101CC0007105610509F03C5F3C5F3D93913008F080
:101CD0008068911DDF93CF931F930F93FF92EF9234
:101CE000192F987F9695E92F96959695E90FFF27DE
:101CF000EE53FF4F99273327EE24FF24A701E70176
:101D000005900894079428F4360FE71EF81E491F23
:101D1000511D660F771F881F991F0694A1F7059024
:101D2000079428F4E70EF81E491F561FC11D770FB0
:101D3000881F991F661F0694A1F70590079428F441
:101D4000F80E491F561FC71FD11D880F991F661F08
:101D5000771F0694A1F70590079420F4490F561FAA
:101D6000C71FD81F990F661F771F881F0694A9F7F2
:101D700084911095177041F0D695C7955795479562
:101D8000F794E7941A95C1F7E8E6F0E068941590A7
:101D9000159135916591959105907FE27395E118C4
:101DA000F10A430B560BC90BD009C0F7E10CF11E29
:101DB000431F561FC91FD01D7EF4703311F48A953E
:101DC000E6CFE894015030F0080F0AF4002702171C
:101DD00008F4202F2395022F7A3328F079E37D939E
:101DE0002A95E9F710C07D932A9589F60694979570
:101DF0006795379517951794E118F10A430B560B21
:101E0000C90BD00998F023957E9173957A3308F029
:101E100070E37C932013B8F77E9170617D9330F06E
:101E2000839571E37D9370E32A95E1F71124EF9098
:101E3000FF900F911F91CF91DF91992787FD90958A
:101E400008955058BB27AA270E94390F0C943A10C6
:101E50000E942C1038F00E94331020F039F49F3F7C
:101E600019F426F40C9429100EF4E095E7FB0C9479
:101E70002310E92F0E944B1058F3BA17620773071B
:101E80008407950720F079F4A6F50C946D100EF4F4
:101E9000E0950B2EBA2FA02D0B01B90190010C017A
:101EA000CA01A0011124FF27591B99F0593F50F492
:101EB000503E68F11A16F040A22F232F342F4427EA
:101EC000585FF3CF469537952795A795F0405395E2
:101ED000C9F77EF41F16BA0B620B730B840BBAF0B2
:101EE0009150A1F0FF0FBB1F661F771F881FC2F71D
:101EF0000EC0BA0F621F731F841F48F48795779531
:101F00006795B795F7959E3F08F0B0CF9395880FEA
:101F100008F09927EE0F9795879508950E94FF0F77
:101F200008F481E008950E94531088F09F5798F0BC
:101F3000B92F9927B751B0F0E1F0660F771F881FCE
:101F4000991F1AF0BA95C9F714C0B13091F00E94E8
:101F50006D10B1E008950C946D10672F782F8827CD
:101F6000B85F39F0B93FCCF3869577956795B3950F
:101F7000D9F73EF490958095709561957F4F8F4F7E
:101F80009F4F0895E89409C097FB3EF49095809583
:101F9000709561957F4F8F4F9F4F9923A9F0F92F2F
:101FA00096E9BB279395F695879577956795B795AD
:101FB000F111F8CFFAF4BB0F11F460FF1BC06F5F93
:101FC0007F4F8F4F9F4F16C0882311F096E911C0A5
:101FD000772321F09EE8872F762F05C0662371F0C6
:101FE00096E8862F70E060E02AF09A95660F771FDA
:101FF000881FDAF7880F9695879597F90895990FB6
:102000000008550FAA0BE0E8FEEF16161706E807C2
:10201000F907C0F012161306E407F50798F0621BE3
:10202000730B840B950B39F40A2661F0232B242BB8
:10203000252B21F408950A2609F4A140A6958FEFD7
:10204000811D811D089597F99F6780E870E060E029
:1020500008959FEF80EC089500240A941616170641
:1020600018060906089500240A9412161306140689
:1020700005060895092E0394000C11F4882352F0EC
:10208000BB0F40F4BF2B11F460FF04C06F5F7F4FA4
:102090008F4F9F4F089557FD9058440F551F59F08B
:1020A0005F3F71F04795880F97FB991F61F09F3F45
:1020B00079F087950895121613061406551FF2CF6E
:1020C0004695F1DF08C0161617061806991FF1CFBE
:1020D00086957105610508940895E894BB276627E5
:1020E0007727CB0197F908950E94FF0F08F48FEF2F
:1020F00008950E948C100C943A100E942C1038F015
:102100000E94331020F0952311F00C9423100C94AE
:10211000291011240C946E100E944B1070F3959F9F
:10212000C1F3950F50E0551F629FF001729FBB27CE
:10213000F00DB11D639FAA27F00DB11DAA1F649F6A
:102140006627B00DA11D661F829F2227B00DA11D1D
:10215000621F739FB00DA11D621F839FA00D611DA3
:10216000221F749F3327A00D611D231F849F600DC4
:10217000211D822F762F6A2F11249F5750409AF0ED
:10218000F1F088234AF0EE0FFF1FBB1F661F771F79
:10219000881F91505040A9F79E3F510580F00C9444
:1021A00023100C946E105F3FE4F3983ED4F38695B1
:1021B00077956795B795F795E7959F5FC1F7FE2BE4
:1021C000880F911D9695879597F908950E94FF0FA6
:1021D000880B990B0895AA1BBB1B51E107C0AA1FCE
:1021E000BB1FA617B70710F0A61BB70B881F991FB8
:1021F0005A95A9F780959095BC01CD010895A1E26B
:102200001A2EAA1BBB1BFD010DC0AA1FBB1FEE1F70
:10221000FF1FA217B307E407F50720F0A21BB30BBB
:10222000E40BF50B661F771F881F991F1A9469F737
:1022300060957095809590959B01AC01BD01CF0193
:102240000895EE0FFF1F0590F491E02D099481E0B1
:0C22500090E0F8940C942C11F894FFCF4F
:10225C0054696D653D20202020200000492020205D
:10226C003D20200000000000566D696E3D202020AE
:10227C0020200000000048428406000000000000FE
:10228C00005F00000007000700147F147F14242A4D
:10229C007F2A122313086462364955225000050325
:1022AC000000001C2241000041221C0014083E08C2
:1022BC001408083E080800503000000808080808F8
:1022CC00006060000020100804023E5149453E00A9
:1022DC00427F400042615149462141454B3118141F
:1022EC00127F1027454545393C4A4949300171094F
:1022FC0005033649494936064949291E0036360038
:10230C000000563600000814224100141414141452
:10231C0000412214080201510906324979413E7EDE
:10232C001111117E7F494949363E414141227F417D
:10233C0041221C7F494949417F090909013E414914
:10234C00497A7F0808087F00417F41002040413FC7
:10235C00017F081422417F404040407F020C027FE5
:10236C007F0408107F3E4141413E7F090909063E2A
:10237C004151215E7F0919294646494949310101DC
:10238C007F01013F4040403F1F2040201F3F40380D
:10239C00403F6314081463070870080761514945EE
:1023AC0043007F41410002040810200041417F009E
:1023BC00040201020440404040400001020400209D
:1023CC00545454787F484444383844444420384466
:1023DC0044487F3854545418087E0901020C525258
:1023EC00523E7F0804047800447D40002040443D68
:1023FC00007F1028440000417F40007C04180478C2
:10240C007C0804047838444444387C1414140808B8
:10241C001414187C7C080404084854545420043FB9
:10242C004440203C4040207C1C2040201C3C403040
:10243C00403C44281028440C5050503C4464544CAC
:10244C0044000836410000007F00000041360800BF
:10245C00100808100878464146781EA16121120028
:10246C000000008D010901560134014801D4010D11
:10247C000A00416464696E67206E65772070617232
:10248C00656E7420666F722000416464696E67200B
:10249C006E6577206368696C6420666F72200050EB
:1024AC006172656E74206164646564207375636326
:1024BC0065737366756C6C0A0A003E00696E666F14
:1024CC004D656E7546756E63206973207374617209
:1024DC007465640056455253494F4E0076302E3386
:1024EC00370032312E31312E323031390050726595
:1024FC007373003C3C204241434B006E616E00699B
:10250C006E66006F76660048756C69207469206E83
:10251C0065207261626F7461657368005341564542
:10252C00004348414E4745533F004E414D45202006
:10253C003A202000594553004E4F00565F6D696E8E
:10254C00203D200069436F6E737453657449467562
:10255C006E63206973207374617274656400562015
:10256C003D20004D41494E004C6F616400496E6640
:10257C006F0053657474696E67730049203D206366
:10258C006F6E73740050203D20636F6E7374004C3B
:10259C004546543A20706F696E746572506F73695A
:1025AC0074696F6E203D200052494748543A2070A0
:1025BC006F696E746572506F736974696F6E203DCC
:1025CC002000414354494F4E3A2054727920746F85
:1025DC002053686F7720506172656E74204D656E64
:1025EC007500414354494F4E3A205468657265203A
:1025FC006973206E6F206368696C64732E2054724B
:10260C007920746F206D616B6520656E6420616349
:10261C0074696F6E005741524E494E473A205468C8
:10262C00697320697320656E6420706F696E742005
:10263C006F66206D656E752C2062757420746865EC
:10264C007265206973206E6F20656E642066756EEE
:10265C006374696F6E2100414354494F4E3A2054C4
:10266C00727920746F2053686F77206368696C648B
:06267C00204D656E7500A3
:00000001FF
